:020000000A28CC
:10000800FE00030EF0000A08F10072290B28FA011D
:10001800FB0183120313A001A101A201A301A40102
:10002800A50183011728831603138E158B170B1749
:100038000C148312031310129012901010148316CC
:10004800031386018312031386017B08803AFF009D
:1000580080307F02031D32283C307A02031C352889
:1000680036286828FA01FB01013083120313A2071E
:100078000318A30A0030A3072308803AFF00803042
:100088007F02031D49283C302202031C4C284D28BE
:10009800682883120313A201A3010130A0070318E3
:1000A800A10A0030A1072108803AFF0080307F02B2
:1000B800031D602818302002031C63286428682860
:1000C80083120313A001A1010A30F2000030F300EB
:1000D800831203132108F5002008F400B2200A3027
:1000E800F2000030F300831203132108F500200802
:1000F800F40019210A30F2000030F30083120313D0
:100108002308F5002208F400B2200A30F20000307B
:10011800F300831203132308F5002208F4001921C1
:100128000A30F2000030F3007B08F5007A08F4008A
:10013800B220730883120313A7007208A6000A30BE
:10014800F2000030F3007B08F5007A08F40019216A
:10015800831203132608860029280A28F701F31FAB
:10016800B628B728BE28F209F309F20A0319F30AD8
:10017800F701F70AF51FC128C228CB28F409F509A9
:10018800F40A0319F50A0130FF007F08F706F801A1
:10019800F901720873040319D228D3280A29F60131
:1001A800F60AE12801300310F20DF30DFF3E031D9E
:1001B800D7280130FF007F08F607F31FE428E52859
:1001C800D62801300310F80DF90DFF3E031DE6286F
:1001D80073087502031DF22872087402031CF528BF
:1001E800F628FD287208F4027308031CF503F502CB
:1001F800781401300310F30CF20CFF3E031DFE28A7
:100208000130F602031D09290A29E5287708031990
:100218000E290F291429F809F909F80A0319F90A06
:100228007908F3007808F2000800F701F51F1D2986
:100238001E292529F409F509F40A0319F50AF70115
:10024800F70AF31F282929292E29F209F309F20AA6
:100258000319F30A7208730403193329342963292B
:10026800F601F60A422901300310F20DF30DFF3EA4
:10027800031D38290130FF007F08F607F31F4529C1
:100288004629372973087502031D4C297208740220
:10029800031C4F29502956297208F4027308031CBD
:1002A800F503F50201300310F30CF20CFF3E031DB9
:1002B80057290130F602031D622963294629770868
:1002C8000319672968296D29F409F509F40A03193E
:1002D800F50A7508F3007408F20008008312031386
:1002E8000C1C7729782992293C308F00B0308E0079
:1002F8000C100130A4070318A50A0030A507143014
:1003080024062504031D89298A299229A401A50107
:100318000130FA070318FB0A0030FB0771088A004E
:0A032800700E8300FE0E7E0E090029
:02400E00383F39
:00000001FF
