:020000000A28CC
:10000800FE00030EF2000A08F3000F280B28F00187
:10001800F10183013928831203130C1C14281528B5
:1000280032283C308F00B0308E000C100130F007C1
:100038000318F10A0030F107143070067104031D2B
:100048002628272828280614283070067104031D3E
:100058002E282F283228F001F101061073088A0093
:10006800720E8300FE0E7E0E0900831603138E1592
:100078008B170B170C148312031310129012901085
:100088001014831603130610861006164A280A2829
:02400E00383F39
:00000001FF
