:020000000E28C8
:10000800FE00030EF1000408F2000A08F3007F085E
:10001800F400AD290F28F321A000F421A100F52157
:10002800A200F621A300F721A400F821A500F921D8
:10003800A600FA21A700FB21A800FC21A900FD21A8
:10004800AA00FE21AB00FF21AC000022AD00012276
:10005800AE000222AF000322B0000422B100052244
:10006800B2000622B300BE01BF01C001C101C20136
:10007800C301F701F8018301AA2883120313B90108
:10008800B51F472848284F28B409B509B40A0319E9
:10009800B50AB901B90AB71F522853285C28B6090E
:1000A800B709B60A0319B70A0130FF007F08B90675
:1000B800BA01BB01340835040319632864289B2856
:1000C800B801B80A722801300310B40DB50DFF3E0F
:1000D800031D68280130FF007F08B807B51F752881
:1000E8007628672801300310BA0DBB0DFF3E031DAB
:1000F800772835083702031D832834083602031C85
:10010800862887288E283408B6023508031CB703CA
:10011800B7023A1401300310B50CB40CFF3E031DAE
:100128008F280130B802031D9A289B2876283908A1
:1001380003199F28A028A528BA09BB09BA0A0319D8
:10014800BB0A3B08B5003A08B4000800831603133D
:100158008E158B170B170C148312031310129012A1
:10016800901010148316031386018501831203135C
:10017800860185010A30B4000030B5003F08B70099
:100188003E08B60041200A3083120313B400003041
:10019800B5003F08B7003E08B6000A210A308312AE
:1001A8000313B4000030B5004108B7004008B6009A
:1001B80041200A3083120313B4000030B50041080F
:1001C800B7004008B6000A210A3083120313B400AE
:1001D8000030B5004308B7004208B60041200A3095
:1001E80083120313B4000030B5004308B700420877
:1001F800B6000A21831203133508BD003408BC0079
:100208003D08C5003C08C400BE280E28F60183122C
:100218000313B71F102911291829B609B709B60AF7
:100228000319B70AF601F60AB51F1B291C2921294B
:10023800B409B509B40A0319B50A34083504031911
:10024800262927295629F501F50A352901300310F1
:10025800B40DB50DFF3E031D2B290130FF007F08AB
:10026800F507B51F382939292A2935083702031D0A
:100278003F2934083602031C4229432949293408F6
:10028800B6023508031CB703B70201300310B50CDA
:10029800B40CFF3E031D4A290130F502031D552900
:1002A80056293929760803195A295B296029B6097C
:1002B800B709B60A0319B70A3708B5003608B400F3
:1002C8000800013083120313C2070318C30A003061
:1002D800C3074308803AFF0080307F02031D762958
:1002E8003C304202031C79297A29AC298312031372
:1002F800C201C3010130C0070318C10A0030C10799
:100308004108803AFF0080307F02031D8D293C3070
:100318004002031C90299129AC2983120313C001C0
:10032800C1010130BE070318BF0A0030BF073F08EC
:10033800803AFF0080307F02031DA42918303E0256
:10034800031CA729A829AC2983120313BE01BF01E6
:100358000800831203130C1CB229B329E8293C3086
:100368008F00B0308E000C100130F7070318F80A20
:100378000030F807143077067804031DC429C5290E
:10038800D2296521831203134408F0007007203E28
:100398008400831300088600051585102830770629
:1003A8007804031DD829D929E829F701F80165211E
:1003B800831203134408F0007007203E840083135F
:1003C80000088600051185147408FF0073088A0068
:1003D80072088400710E8300FE0E7E0E09003F3401
:1003E8000034063400345B3400344F34003466344F
:1003F80000346D3400347D340034073400347F34E5
:0604080000346F340034E3
:02400E00183F59
:00000001FF
