:020000000C28CA
:10000800FE00030EF0000A08F1007F08F2009029B4
:100018000D28C421AA00C521AB00A001A101A2019D
:10002800A301A401A501F901FA0183011B28831684
:1000380003138E158B170B170C148312031310124E
:100048009012901010148316031386018312031361
:100058008601133079067A04031D3328342838289A
:10006800831203132A08860079087A04031D3D28A1
:100078003E284228831203132B0886000A30F30017
:100088000030F400831203132108F6002008F5005D
:1000980086200A30F3000030F4008312031321088D
:1000A800F6002008F500EF200A30F3000030F400D5
:1000B800831203132308F6002208F50086200A306D
:1000C800F3000030F400831203132308F60022081B
:1000D800F500EF200A30F3000030F4008312031318
:1000E8002508F6002408F50086200A30F3000030C1
:1000F800F400831203132508F6002408F500EF2006
:100108002D280C2883120313A701F41F8C288D288F
:100118009428F309F409F30A0319F40AA701A70AB2
:10012800F61F97289828A128F509F609F50A031952
:10013800F60A0130FF007F08A706A801A901730885
:1001480074040319A828A928E028A601A60AB72834
:1001580001300310F30DF40DFF3E031DAD280130EF
:10016800FF007F08A607F41FBA28BB28AC28013077
:100178000310A80DA90DFF3E031DBC2874087602C4
:10018800031DC82873087502031CCB28CC28D32864
:100198007308F5027408031CF603F60228140130EC
:1001A8000310F40CF30CFF3E031DD4280130A60203
:1001B800031DDF28E028BB2827080319E428E528C1
:1001C800EA28A809A909A80A0319A90A2908F4000C
:1001D8002808F3000800F801F61FF328F428FB2884
:1001E800F509F609F50A0319F60AF801F80AF41FE1
:1001F800FE28FF280429F309F409F30A0319F40A6D
:1002080073087404031909290A293929F701F70A17
:10021800182901300310F30DF40DFF3E031D0E29BC
:100228000130FF007F08F707F41F1B291C290D293F
:1002380074087602031D222973087502031C2529F8
:1002480026292C297308F5027408031CF603F60204
:1002580001300310F40CF30CFF3E031D2D2901306F
:10026800F702031D382939291C29780803193D2963
:100278003E294329F509F609F50A0319F60A76080D
:10028800F4007508F3000800013083120313A40773
:100298000318A50A0030A5072508803AFF0080301A
:1002A8007F02031D59293C302402031C5C295D2967
:1002B8008F2983120313A401A5010130A207031893
:1002C800A30A0030A3072308803AFF0080307F028A
:1002D800031D70293C302202031C732974298F29BD
:1002E80083120313A201A3010130A0070318A10A76
:1002F8000030A1072108803AFF0080307F02031DEB
:10030800872918302002031C8A298B298F298312F8
:100318000313A001A1010800831203130C1C9529E3
:100328009629AB293C308F00B0308E000C1001307C
:10033800F9070318FA0A0030FA07283079067A0410
:10034800031DA729A829AB29F901FA014821720838
:10035800FF0071088A00700E8300FE0E7E0E0900F1
:1003680001308A000408840A820700343034783463
:100378003034303400343034783446344634003441
:040388000634013402
:02400E00183F59
:00000001FF
