:020000000A28CC
:10000800FE00030EF8000A08F90063280B28F00127
:10001800F101F201F301F401F501F601F7018301A1
:100028001528831603138E158B170B170C148312C0
:1000380003131012901290101014831603138601E4
:100048008312031386017508803AFF0080307F020F
:10005800031D30283C307402031C33283428272819
:10006800F401F5010130F2070318F30A0030F30731
:100078007308803AFF0080307F02031D45283C301A
:100088007202031C482849282728F201F30101308D
:10009800F0070318F10A0030F1077108803AFF00F1
:1000A80080307F02031D5A2818307002031C5D2817
:1000B8005E286128F001F101272827280A288312E1
:1000C80003130C1C6828692885283C308F00B03041
:1000D8008E000C100130F6070318F70A0030F707F6
:1000E800143076067704031D7A287B288528F601C4
:1000F800F7010130F4070318F50A0030F50701305D
:10010800860679088A00780E8300FE0E7E0E0900A6
:02400E00383F39
:00000001FF
